{
	"contracts/SimplePasswordStorage.sol": {
		"SimplePasswordStorage": {
			"abi": [
				{
					"inputs": [],
					"name": "NotFound",
					"type": "error"
				},
				{
					"inputs": [
						{
							"internalType": "address",
							"name": "_user",
							"type": "address"
						}
					],
					"name": "getPasswordById",
					"outputs": [
						{
							"internalType": "bytes32",
							"name": "",
							"type": "bytes32"
						}
					],
					"stateMutability": "view",
					"type": "function"
				},
				{
					"inputs": [
						{
							"internalType": "string",
							"name": "_password",
							"type": "string"
						}
					],
					"name": "setPassword",
					"outputs": [],
					"stateMutability": "nonpayable",
					"type": "function"
				}
			],
			"devdoc": {
				"kind": "dev",
				"methods": {},
				"version": 1
			},
			"evm": {
				"assembly": "    /* \"contracts/SimplePasswordStorage.sol\":76:590  contract SimplePasswordStorage {... */\n  mstore(0x40, 0x80)\n  callvalue\n  dup1\n  iszero\n  tag_1\n  jumpi\n  0x00\n  dup1\n  revert\ntag_1:\n  pop\n  dataSize(sub_0)\n  dup1\n  dataOffset(sub_0)\n  0x00\n  codecopy\n  0x00\n  return\nstop\n\nsub_0: assembly {\n        /* \"contracts/SimplePasswordStorage.sol\":76:590  contract SimplePasswordStorage {... */\n      mstore(0x40, 0x80)\n      callvalue\n      dup1\n      iszero\n      tag_1\n      jumpi\n      0x00\n      dup1\n      revert\n    tag_1:\n      pop\n      jumpi(tag_2, lt(calldatasize, 0x04))\n      shr(0xe0, calldataload(0x00))\n      dup1\n      0x290bb453\n      eq\n      tag_3\n      jumpi\n      dup1\n      0xcb7de653\n      eq\n      tag_4\n      jumpi\n    tag_2:\n      0x00\n      dup1\n      revert\n        /* \"contracts/SimplePasswordStorage.sol\":169:356  function setPassword(string memory _password) external {... */\n    tag_3:\n      tag_5\n      0x04\n      dup1\n      calldatasize\n      sub\n      dup2\n      add\n      swap1\n      tag_6\n      swap2\n      swap1\n      tag_7\n      jump\t// in\n    tag_6:\n      tag_8\n      jump\t// in\n    tag_5:\n      stop\n        /* \"contracts/SimplePasswordStorage.sol\":362:588  function getPasswordById(address _user) external view returns (bytes32) {... */\n    tag_4:\n      tag_9\n      0x04\n      dup1\n      calldatasize\n      sub\n      dup2\n      add\n      swap1\n      tag_10\n      swap2\n      swap1\n      tag_11\n      jump\t// in\n    tag_10:\n      tag_12\n      jump\t// in\n    tag_9:\n      mload(0x40)\n      tag_13\n      swap2\n      swap1\n      tag_14\n      jump\t// in\n    tag_13:\n      mload(0x40)\n      dup1\n      swap2\n      sub\n      swap1\n      return\n        /* \"contracts/SimplePasswordStorage.sol\":169:356  function setPassword(string memory _password) external {... */\n    tag_8:\n        /* \"contracts/SimplePasswordStorage.sol\":234:256  bytes32 hashedPassword */\n      0x00\n        /* \"contracts/SimplePasswordStorage.sol\":286:295  _password */\n      dup2\n        /* \"contracts/SimplePasswordStorage.sol\":269:296  abi.encodePacked(_password) */\n      add(0x20, mload(0x40))\n      tag_16\n      swap2\n      swap1\n      tag_17\n      jump\t// in\n    tag_16:\n      mload(0x40)\n      0x20\n      dup2\n      dup4\n      sub\n      sub\n      dup2\n      mstore\n      swap1\n      0x40\n      mstore\n        /* \"contracts/SimplePasswordStorage.sol\":259:297  keccak256(abi.encodePacked(_password)) */\n      dup1\n      mload\n      swap1\n      0x20\n      add\n      keccak256\n        /* \"contracts/SimplePasswordStorage.sol\":234:297  bytes32 hashedPassword = keccak256(abi.encodePacked(_password)) */\n      swap1\n      pop\n        /* \"contracts/SimplePasswordStorage.sol\":335:349  hashedPassword */\n      dup1\n        /* \"contracts/SimplePasswordStorage.sol\":307:320  keyToPassword */\n      0x00\n        /* \"contracts/SimplePasswordStorage.sol\":307:332  keyToPassword[msg.sender] */\n      dup1\n        /* \"contracts/SimplePasswordStorage.sol\":321:331  msg.sender */\n      caller\n        /* \"contracts/SimplePasswordStorage.sol\":307:332  keyToPassword[msg.sender] */\n      0xffffffffffffffffffffffffffffffffffffffff\n      and\n      0xffffffffffffffffffffffffffffffffffffffff\n      and\n      dup2\n      mstore\n      0x20\n      add\n      swap1\n      dup2\n      mstore\n      0x20\n      add\n      0x00\n      keccak256\n        /* \"contracts/SimplePasswordStorage.sol\":307:349  keyToPassword[msg.sender] = hashedPassword */\n      dup2\n      swap1\n      sstore\n      pop\n        /* \"contracts/SimplePasswordStorage.sol\":224:356  {... */\n      pop\n        /* \"contracts/SimplePasswordStorage.sol\":169:356  function setPassword(string memory _password) external {... */\n      pop\n      jump\t// out\n        /* \"contracts/SimplePasswordStorage.sol\":362:588  function getPasswordById(address _user) external view returns (bytes32) {... */\n    tag_12:\n        /* \"contracts/SimplePasswordStorage.sol\":425:432  bytes32 */\n      0x00\n        /* \"contracts/SimplePasswordStorage.sol\":444:466  bytes32 storedPassword */\n      dup1\n        /* \"contracts/SimplePasswordStorage.sol\":469:482  keyToPassword */\n      0x00\n        /* \"contracts/SimplePasswordStorage.sol\":469:489  keyToPassword[_user] */\n      dup1\n        /* \"contracts/SimplePasswordStorage.sol\":483:488  _user */\n      dup5\n        /* \"contracts/SimplePasswordStorage.sol\":469:489  keyToPassword[_user] */\n      0xffffffffffffffffffffffffffffffffffffffff\n      and\n      0xffffffffffffffffffffffffffffffffffffffff\n      and\n      dup2\n      mstore\n      0x20\n      add\n      swap1\n      dup2\n      mstore\n      0x20\n      add\n      0x00\n      keccak256\n      sload\n        /* \"contracts/SimplePasswordStorage.sol\":444:489  bytes32 storedPassword = keyToPassword[_user] */\n      swap1\n      pop\n        /* \"contracts/SimplePasswordStorage.sol\":529:530  0 */\n      0x00\n        /* \"contracts/SimplePasswordStorage.sol\":521:531  bytes32(0) */\n      dup1\n      shl\n        /* \"contracts/SimplePasswordStorage.sol\":503:517  storedPassword */\n      dup2\n        /* \"contracts/SimplePasswordStorage.sol\":503:531  storedPassword == bytes32(0) */\n      sub\n        /* \"contracts/SimplePasswordStorage.sol\":499:550  if (storedPassword == bytes32(0)) revert NotFound() */\n      tag_19\n      jumpi\n        /* \"contracts/SimplePasswordStorage.sol\":540:550  NotFound() */\n      mload(0x40)\n      0xc5723b5100000000000000000000000000000000000000000000000000000000\n      dup2\n      mstore\n      0x04\n      add\n      mload(0x40)\n      dup1\n      swap2\n      sub\n      swap1\n      revert\n        /* \"contracts/SimplePasswordStorage.sol\":499:550  if (storedPassword == bytes32(0)) revert NotFound() */\n    tag_19:\n        /* \"contracts/SimplePasswordStorage.sol\":567:581  storedPassword */\n      dup1\n        /* \"contracts/SimplePasswordStorage.sol\":560:581  return storedPassword */\n      swap2\n      pop\n      pop\n        /* \"contracts/SimplePasswordStorage.sol\":362:588  function getPasswordById(address _user) external view returns (bytes32) {... */\n      swap2\n      swap1\n      pop\n      jump\t// out\n        /* \"#utility.yul\":7:82   */\n    tag_20:\n        /* \"#utility.yul\":40:46   */\n      0x00\n        /* \"#utility.yul\":73:75   */\n      0x40\n        /* \"#utility.yul\":67:76   */\n      mload\n        /* \"#utility.yul\":57:76   */\n      swap1\n      pop\n        /* \"#utility.yul\":7:82   */\n      swap1\n      jump\t// out\n        /* \"#utility.yul\":88:205   */\n    tag_21:\n        /* \"#utility.yul\":197:198   */\n      0x00\n        /* \"#utility.yul\":194:195   */\n      dup1\n        /* \"#utility.yul\":187:199   */\n      revert\n        /* \"#utility.yul\":211:328   */\n    tag_22:\n        /* \"#utility.yul\":320:321   */\n      0x00\n        /* \"#utility.yul\":317:318   */\n      dup1\n        /* \"#utility.yul\":310:322   */\n      revert\n        /* \"#utility.yul\":334:451   */\n    tag_23:\n        /* \"#utility.yul\":443:444   */\n      0x00\n        /* \"#utility.yul\":440:441   */\n      dup1\n        /* \"#utility.yul\":433:445   */\n      revert\n        /* \"#utility.yul\":457:574   */\n    tag_24:\n        /* \"#utility.yul\":566:567   */\n      0x00\n        /* \"#utility.yul\":563:564   */\n      dup1\n        /* \"#utility.yul\":556:568   */\n      revert\n        /* \"#utility.yul\":580:682   */\n    tag_25:\n        /* \"#utility.yul\":621:627   */\n      0x00\n        /* \"#utility.yul\":672:674   */\n      0x1f\n        /* \"#utility.yul\":668:675   */\n      not\n        /* \"#utility.yul\":663:665   */\n      0x1f\n        /* \"#utility.yul\":656:661   */\n      dup4\n        /* \"#utility.yul\":652:666   */\n      add\n        /* \"#utility.yul\":648:676   */\n      and\n        /* \"#utility.yul\":638:676   */\n      swap1\n      pop\n        /* \"#utility.yul\":580:682   */\n      swap2\n      swap1\n      pop\n      jump\t// out\n        /* \"#utility.yul\":688:868   */\n    tag_26:\n        /* \"#utility.yul\":736:813   */\n      0x4e487b7100000000000000000000000000000000000000000000000000000000\n        /* \"#utility.yul\":733:734   */\n      0x00\n        /* \"#utility.yul\":726:814   */\n      mstore\n        /* \"#utility.yul\":833:837   */\n      0x41\n        /* \"#utility.yul\":830:831   */\n      0x04\n        /* \"#utility.yul\":823:838   */\n      mstore\n        /* \"#utility.yul\":857:861   */\n      0x24\n        /* \"#utility.yul\":854:855   */\n      0x00\n        /* \"#utility.yul\":847:862   */\n      revert\n        /* \"#utility.yul\":874:1155   */\n    tag_27:\n        /* \"#utility.yul\":957:984   */\n      tag_52\n        /* \"#utility.yul\":979:983   */\n      dup3\n        /* \"#utility.yul\":957:984   */\n      tag_25\n      jump\t// in\n    tag_52:\n        /* \"#utility.yul\":949:955   */\n      dup2\n        /* \"#utility.yul\":945:985   */\n      add\n        /* \"#utility.yul\":1087:1093   */\n      dup2\n        /* \"#utility.yul\":1075:1085   */\n      dup2\n        /* \"#utility.yul\":1072:1094   */\n      lt\n        /* \"#utility.yul\":1051:1069   */\n      0xffffffffffffffff\n        /* \"#utility.yul\":1039:1049   */\n      dup3\n        /* \"#utility.yul\":1036:1070   */\n      gt\n        /* \"#utility.yul\":1033:1095   */\n      or\n        /* \"#utility.yul\":1030:1118   */\n      iszero\n      tag_53\n      jumpi\n        /* \"#utility.yul\":1098:1116   */\n      tag_54\n      tag_26\n      jump\t// in\n    tag_54:\n        /* \"#utility.yul\":1030:1118   */\n    tag_53:\n        /* \"#utility.yul\":1138:1148   */\n      dup1\n        /* \"#utility.yul\":1134:1136   */\n      0x40\n        /* \"#utility.yul\":1127:1149   */\n      mstore\n        /* \"#utility.yul\":917:1155   */\n      pop\n        /* \"#utility.yul\":874:1155   */\n      pop\n      pop\n      jump\t// out\n        /* \"#utility.yul\":1161:1290   */\n    tag_28:\n        /* \"#utility.yul\":1195:1201   */\n      0x00\n        /* \"#utility.yul\":1222:1242   */\n      tag_56\n      tag_20\n      jump\t// in\n    tag_56:\n        /* \"#utility.yul\":1212:1242   */\n      swap1\n      pop\n        /* \"#utility.yul\":1251:1284   */\n      tag_57\n        /* \"#utility.yul\":1279:1283   */\n      dup3\n        /* \"#utility.yul\":1271:1277   */\n      dup3\n        /* \"#utility.yul\":1251:1284   */\n      tag_27\n      jump\t// in\n    tag_57:\n        /* \"#utility.yul\":1161:1290   */\n      swap2\n      swap1\n      pop\n      jump\t// out\n        /* \"#utility.yul\":1296:1604   */\n    tag_29:\n        /* \"#utility.yul\":1358:1362   */\n      0x00\n        /* \"#utility.yul\":1448:1466   */\n      0xffffffffffffffff\n        /* \"#utility.yul\":1440:1446   */\n      dup3\n        /* \"#utility.yul\":1437:1467   */\n      gt\n        /* \"#utility.yul\":1434:1490   */\n      iszero\n      tag_59\n      jumpi\n        /* \"#utility.yul\":1470:1488   */\n      tag_60\n      tag_26\n      jump\t// in\n    tag_60:\n        /* \"#utility.yul\":1434:1490   */\n    tag_59:\n        /* \"#utility.yul\":1508:1537   */\n      tag_61\n        /* \"#utility.yul\":1530:1536   */\n      dup3\n        /* \"#utility.yul\":1508:1537   */\n      tag_25\n      jump\t// in\n    tag_61:\n        /* \"#utility.yul\":1500:1537   */\n      swap1\n      pop\n        /* \"#utility.yul\":1592:1596   */\n      0x20\n        /* \"#utility.yul\":1586:1590   */\n      dup2\n        /* \"#utility.yul\":1582:1597   */\n      add\n        /* \"#utility.yul\":1574:1597   */\n      swap1\n      pop\n        /* \"#utility.yul\":1296:1604   */\n      swap2\n      swap1\n      pop\n      jump\t// out\n        /* \"#utility.yul\":1610:1758   */\n    tag_30:\n        /* \"#utility.yul\":1708:1714   */\n      dup3\n        /* \"#utility.yul\":1703:1706   */\n      dup2\n        /* \"#utility.yul\":1698:1701   */\n      dup4\n        /* \"#utility.yul\":1685:1715   */\n      calldatacopy\n        /* \"#utility.yul\":1749:1750   */\n      0x00\n        /* \"#utility.yul\":1740:1746   */\n      dup4\n        /* \"#utility.yul\":1735:1738   */\n      dup4\n        /* \"#utility.yul\":1731:1747   */\n      add\n        /* \"#utility.yul\":1724:1751   */\n      mstore\n        /* \"#utility.yul\":1610:1758   */\n      pop\n      pop\n      pop\n      jump\t// out\n        /* \"#utility.yul\":1764:2189   */\n    tag_31:\n        /* \"#utility.yul\":1842:1847   */\n      0x00\n        /* \"#utility.yul\":1867:1933   */\n      tag_64\n        /* \"#utility.yul\":1883:1932   */\n      tag_65\n        /* \"#utility.yul\":1925:1931   */\n      dup5\n        /* \"#utility.yul\":1883:1932   */\n      tag_29\n      jump\t// in\n    tag_65:\n        /* \"#utility.yul\":1867:1933   */\n      tag_28\n      jump\t// in\n    tag_64:\n        /* \"#utility.yul\":1858:1933   */\n      swap1\n      pop\n        /* \"#utility.yul\":1956:1962   */\n      dup3\n        /* \"#utility.yul\":1949:1954   */\n      dup2\n        /* \"#utility.yul\":1942:1963   */\n      mstore\n        /* \"#utility.yul\":1994:1998   */\n      0x20\n        /* \"#utility.yul\":1987:1992   */\n      dup2\n        /* \"#utility.yul\":1983:1999   */\n      add\n        /* \"#utility.yul\":2032:2035   */\n      dup5\n        /* \"#utility.yul\":2023:2029   */\n      dup5\n        /* \"#utility.yul\":2018:2021   */\n      dup5\n        /* \"#utility.yul\":2014:2030   */\n      add\n        /* \"#utility.yul\":2011:2036   */\n      gt\n        /* \"#utility.yul\":2008:2120   */\n      iszero\n      tag_66\n      jumpi\n        /* \"#utility.yul\":2039:2118   */\n      tag_67\n      tag_24\n      jump\t// in\n    tag_67:\n        /* \"#utility.yul\":2008:2120   */\n    tag_66:\n        /* \"#utility.yul\":2129:2183   */\n      tag_68\n        /* \"#utility.yul\":2176:2182   */\n      dup5\n        /* \"#utility.yul\":2171:2174   */\n      dup3\n        /* \"#utility.yul\":2166:2169   */\n      dup6\n        /* \"#utility.yul\":2129:2183   */\n      tag_30\n      jump\t// in\n    tag_68:\n        /* \"#utility.yul\":1848:2189   */\n      pop\n        /* \"#utility.yul\":1764:2189   */\n      swap4\n      swap3\n      pop\n      pop\n      pop\n      jump\t// out\n        /* \"#utility.yul\":2209:2549   */\n    tag_32:\n        /* \"#utility.yul\":2265:2270   */\n      0x00\n        /* \"#utility.yul\":2314:2317   */\n      dup3\n        /* \"#utility.yul\":2307:2311   */\n      0x1f\n        /* \"#utility.yul\":2299:2305   */\n      dup4\n        /* \"#utility.yul\":2295:2312   */\n      add\n        /* \"#utility.yul\":2291:2318   */\n      slt\n        /* \"#utility.yul\":2281:2403   */\n      tag_70\n      jumpi\n        /* \"#utility.yul\":2322:2401   */\n      tag_71\n      tag_23\n      jump\t// in\n    tag_71:\n        /* \"#utility.yul\":2281:2403   */\n    tag_70:\n        /* \"#utility.yul\":2439:2445   */\n      dup2\n        /* \"#utility.yul\":2426:2446   */\n      calldataload\n        /* \"#utility.yul\":2464:2543   */\n      tag_72\n        /* \"#utility.yul\":2539:2542   */\n      dup5\n        /* \"#utility.yul\":2531:2537   */\n      dup3\n        /* \"#utility.yul\":2524:2528   */\n      0x20\n        /* \"#utility.yul\":2516:2522   */\n      dup7\n        /* \"#utility.yul\":2512:2529   */\n      add\n        /* \"#utility.yul\":2464:2543   */\n      tag_31\n      jump\t// in\n    tag_72:\n        /* \"#utility.yul\":2455:2543   */\n      swap2\n      pop\n        /* \"#utility.yul\":2271:2549   */\n      pop\n        /* \"#utility.yul\":2209:2549   */\n      swap3\n      swap2\n      pop\n      pop\n      jump\t// out\n        /* \"#utility.yul\":2555:3064   */\n    tag_7:\n        /* \"#utility.yul\":2624:2630   */\n      0x00\n        /* \"#utility.yul\":2673:2675   */\n      0x20\n        /* \"#utility.yul\":2661:2670   */\n      dup3\n        /* \"#utility.yul\":2652:2659   */\n      dup5\n        /* \"#utility.yul\":2648:2671   */\n      sub\n        /* \"#utility.yul\":2644:2676   */\n      slt\n        /* \"#utility.yul\":2641:2760   */\n      iszero\n      tag_74\n      jumpi\n        /* \"#utility.yul\":2679:2758   */\n      tag_75\n      tag_21\n      jump\t// in\n    tag_75:\n        /* \"#utility.yul\":2641:2760   */\n    tag_74:\n        /* \"#utility.yul\":2827:2828   */\n      0x00\n        /* \"#utility.yul\":2816:2825   */\n      dup3\n        /* \"#utility.yul\":2812:2829   */\n      add\n        /* \"#utility.yul\":2799:2830   */\n      calldataload\n        /* \"#utility.yul\":2857:2875   */\n      0xffffffffffffffff\n        /* \"#utility.yul\":2849:2855   */\n      dup2\n        /* \"#utility.yul\":2846:2876   */\n      gt\n        /* \"#utility.yul\":2843:2960   */\n      iszero\n      tag_76\n      jumpi\n        /* \"#utility.yul\":2879:2958   */\n      tag_77\n      tag_22\n      jump\t// in\n    tag_77:\n        /* \"#utility.yul\":2843:2960   */\n    tag_76:\n        /* \"#utility.yul\":2984:3047   */\n      tag_78\n        /* \"#utility.yul\":3039:3046   */\n      dup5\n        /* \"#utility.yul\":3030:3036   */\n      dup3\n        /* \"#utility.yul\":3019:3028   */\n      dup6\n        /* \"#utility.yul\":3015:3037   */\n      add\n        /* \"#utility.yul\":2984:3047   */\n      tag_32\n      jump\t// in\n    tag_78:\n        /* \"#utility.yul\":2974:3047   */\n      swap2\n      pop\n        /* \"#utility.yul\":2770:3057   */\n      pop\n        /* \"#utility.yul\":2555:3064   */\n      swap3\n      swap2\n      pop\n      pop\n      jump\t// out\n        /* \"#utility.yul\":3070:3196   */\n    tag_33:\n        /* \"#utility.yul\":3107:3114   */\n      0x00\n        /* \"#utility.yul\":3147:3189   */\n      0xffffffffffffffffffffffffffffffffffffffff\n        /* \"#utility.yul\":3140:3145   */\n      dup3\n        /* \"#utility.yul\":3136:3190   */\n      and\n        /* \"#utility.yul\":3125:3190   */\n      swap1\n      pop\n        /* \"#utility.yul\":3070:3196   */\n      swap2\n      swap1\n      pop\n      jump\t// out\n        /* \"#utility.yul\":3202:3298   */\n    tag_34:\n        /* \"#utility.yul\":3239:3246   */\n      0x00\n        /* \"#utility.yul\":3268:3292   */\n      tag_81\n        /* \"#utility.yul\":3286:3291   */\n      dup3\n        /* \"#utility.yul\":3268:3292   */\n      tag_33\n      jump\t// in\n    tag_81:\n        /* \"#utility.yul\":3257:3292   */\n      swap1\n      pop\n        /* \"#utility.yul\":3202:3298   */\n      swap2\n      swap1\n      pop\n      jump\t// out\n        /* \"#utility.yul\":3304:3426   */\n    tag_35:\n        /* \"#utility.yul\":3377:3401   */\n      tag_83\n        /* \"#utility.yul\":3395:3400   */\n      dup2\n        /* \"#utility.yul\":3377:3401   */\n      tag_34\n      jump\t// in\n    tag_83:\n        /* \"#utility.yul\":3370:3375   */\n      dup2\n        /* \"#utility.yul\":3367:3402   */\n      eq\n        /* \"#utility.yul\":3357:3420   */\n      tag_84\n      jumpi\n        /* \"#utility.yul\":3416:3417   */\n      0x00\n        /* \"#utility.yul\":3413:3414   */\n      dup1\n        /* \"#utility.yul\":3406:3418   */\n      revert\n        /* \"#utility.yul\":3357:3420   */\n    tag_84:\n        /* \"#utility.yul\":3304:3426   */\n      pop\n      jump\t// out\n        /* \"#utility.yul\":3432:3571   */\n    tag_36:\n        /* \"#utility.yul\":3478:3483   */\n      0x00\n        /* \"#utility.yul\":3516:3522   */\n      dup2\n        /* \"#utility.yul\":3503:3523   */\n      calldataload\n        /* \"#utility.yul\":3494:3523   */\n      swap1\n      pop\n        /* \"#utility.yul\":3532:3565   */\n      tag_86\n        /* \"#utility.yul\":3559:3564   */\n      dup2\n        /* \"#utility.yul\":3532:3565   */\n      tag_35\n      jump\t// in\n    tag_86:\n        /* \"#utility.yul\":3432:3571   */\n      swap3\n      swap2\n      pop\n      pop\n      jump\t// out\n        /* \"#utility.yul\":3577:3906   */\n    tag_11:\n        /* \"#utility.yul\":3636:3642   */\n      0x00\n        /* \"#utility.yul\":3685:3687   */\n      0x20\n        /* \"#utility.yul\":3673:3682   */\n      dup3\n        /* \"#utility.yul\":3664:3671   */\n      dup5\n        /* \"#utility.yul\":3660:3683   */\n      sub\n        /* \"#utility.yul\":3656:3688   */\n      slt\n        /* \"#utility.yul\":3653:3772   */\n      iszero\n      tag_88\n      jumpi\n        /* \"#utility.yul\":3691:3770   */\n      tag_89\n      tag_21\n      jump\t// in\n    tag_89:\n        /* \"#utility.yul\":3653:3772   */\n    tag_88:\n        /* \"#utility.yul\":3811:3812   */\n      0x00\n        /* \"#utility.yul\":3836:3889   */\n      tag_90\n        /* \"#utility.yul\":3881:3888   */\n      dup5\n        /* \"#utility.yul\":3872:3878   */\n      dup3\n        /* \"#utility.yul\":3861:3870   */\n      dup6\n        /* \"#utility.yul\":3857:3879   */\n      add\n        /* \"#utility.yul\":3836:3889   */\n      tag_36\n      jump\t// in\n    tag_90:\n        /* \"#utility.yul\":3826:3889   */\n      swap2\n      pop\n        /* \"#utility.yul\":3782:3899   */\n      pop\n        /* \"#utility.yul\":3577:3906   */\n      swap3\n      swap2\n      pop\n      pop\n      jump\t// out\n        /* \"#utility.yul\":3912:3989   */\n    tag_37:\n        /* \"#utility.yul\":3949:3956   */\n      0x00\n        /* \"#utility.yul\":3978:3983   */\n      dup2\n        /* \"#utility.yul\":3967:3983   */\n      swap1\n      pop\n        /* \"#utility.yul\":3912:3989   */\n      swap2\n      swap1\n      pop\n      jump\t// out\n        /* \"#utility.yul\":3995:4113   */\n    tag_38:\n        /* \"#utility.yul\":4082:4106   */\n      tag_93\n        /* \"#utility.yul\":4100:4105   */\n      dup2\n        /* \"#utility.yul\":4082:4106   */\n      tag_37\n      jump\t// in\n    tag_93:\n        /* \"#utility.yul\":4077:4080   */\n      dup3\n        /* \"#utility.yul\":4070:4107   */\n      mstore\n        /* \"#utility.yul\":3995:4113   */\n      pop\n      pop\n      jump\t// out\n        /* \"#utility.yul\":4119:4341   */\n    tag_14:\n        /* \"#utility.yul\":4212:4216   */\n      0x00\n        /* \"#utility.yul\":4250:4252   */\n      0x20\n        /* \"#utility.yul\":4239:4248   */\n      dup3\n        /* \"#utility.yul\":4235:4253   */\n      add\n        /* \"#utility.yul\":4227:4253   */\n      swap1\n      pop\n        /* \"#utility.yul\":4263:4334   */\n      tag_95\n        /* \"#utility.yul\":4331:4332   */\n      0x00\n        /* \"#utility.yul\":4320:4329   */\n      dup4\n        /* \"#utility.yul\":4316:4333   */\n      add\n        /* \"#utility.yul\":4307:4313   */\n      dup5\n        /* \"#utility.yul\":4263:4334   */\n      tag_38\n      jump\t// in\n    tag_95:\n        /* \"#utility.yul\":4119:4341   */\n      swap3\n      swap2\n      pop\n      pop\n      jump\t// out\n        /* \"#utility.yul\":4347:4446   */\n    tag_39:\n        /* \"#utility.yul\":4399:4405   */\n      0x00\n        /* \"#utility.yul\":4433:4438   */\n      dup2\n        /* \"#utility.yul\":4427:4439   */\n      mload\n        /* \"#utility.yul\":4417:4439   */\n      swap1\n      pop\n        /* \"#utility.yul\":4347:4446   */\n      swap2\n      swap1\n      pop\n      jump\t// out\n        /* \"#utility.yul\":4452:4600   */\n    tag_40:\n        /* \"#utility.yul\":4554:4565   */\n      0x00\n        /* \"#utility.yul\":4591:4594   */\n      dup2\n        /* \"#utility.yul\":4576:4594   */\n      swap1\n      pop\n        /* \"#utility.yul\":4452:4600   */\n      swap3\n      swap2\n      pop\n      pop\n      jump\t// out\n        /* \"#utility.yul\":4606:4745   */\n    tag_41:\n        /* \"#utility.yul\":4695:4701   */\n      dup3\n        /* \"#utility.yul\":4690:4693   */\n      dup2\n        /* \"#utility.yul\":4685:4688   */\n      dup4\n        /* \"#utility.yul\":4679:4702   */\n      mcopy\n        /* \"#utility.yul\":4736:4737   */\n      0x00\n        /* \"#utility.yul\":4727:4733   */\n      dup4\n        /* \"#utility.yul\":4722:4725   */\n      dup4\n        /* \"#utility.yul\":4718:4734   */\n      add\n        /* \"#utility.yul\":4711:4738   */\n      mstore\n        /* \"#utility.yul\":4606:4745   */\n      pop\n      pop\n      pop\n      jump\t// out\n        /* \"#utility.yul\":4751:5141   */\n    tag_42:\n        /* \"#utility.yul\":4857:4860   */\n      0x00\n        /* \"#utility.yul\":4885:4924   */\n      tag_100\n        /* \"#utility.yul\":4918:4923   */\n      dup3\n        /* \"#utility.yul\":4885:4924   */\n      tag_39\n      jump\t// in\n    tag_100:\n        /* \"#utility.yul\":4940:5029   */\n      tag_101\n        /* \"#utility.yul\":5022:5028   */\n      dup2\n        /* \"#utility.yul\":5017:5020   */\n      dup6\n        /* \"#utility.yul\":4940:5029   */\n      tag_40\n      jump\t// in\n    tag_101:\n        /* \"#utility.yul\":4933:5029   */\n      swap4\n      pop\n        /* \"#utility.yul\":5038:5103   */\n      tag_102\n        /* \"#utility.yul\":5096:5102   */\n      dup2\n        /* \"#utility.yul\":5091:5094   */\n      dup6\n        /* \"#utility.yul\":5084:5088   */\n      0x20\n        /* \"#utility.yul\":5077:5082   */\n      dup7\n        /* \"#utility.yul\":5073:5089   */\n      add\n        /* \"#utility.yul\":5038:5103   */\n      tag_41\n      jump\t// in\n    tag_102:\n        /* \"#utility.yul\":5128:5134   */\n      dup1\n        /* \"#utility.yul\":5123:5126   */\n      dup5\n        /* \"#utility.yul\":5119:5135   */\n      add\n        /* \"#utility.yul\":5112:5135   */\n      swap2\n      pop\n        /* \"#utility.yul\":4861:5141   */\n      pop\n        /* \"#utility.yul\":4751:5141   */\n      swap3\n      swap2\n      pop\n      pop\n      jump\t// out\n        /* \"#utility.yul\":5147:5422   */\n    tag_17:\n        /* \"#utility.yul\":5279:5282   */\n      0x00\n        /* \"#utility.yul\":5301:5396   */\n      tag_104\n        /* \"#utility.yul\":5392:5395   */\n      dup3\n        /* \"#utility.yul\":5383:5389   */\n      dup5\n        /* \"#utility.yul\":5301:5396   */\n      tag_42\n      jump\t// in\n    tag_104:\n        /* \"#utility.yul\":5294:5396   */\n      swap2\n      pop\n        /* \"#utility.yul\":5413:5416   */\n      dup2\n        /* \"#utility.yul\":5406:5416   */\n      swap1\n      pop\n        /* \"#utility.yul\":5147:5422   */\n      swap3\n      swap2\n      pop\n      pop\n      jump\t// out\n\n    auxdata: 0xa26469706673582212201df080cbc8ac729a0270ac44c456a4c58f0796247058cc7b2c9012c821224ed264736f6c634300081a0033\n}\n",
				"bytecode": {
					"linkReferences": {},
					"object": "6080604052348015600e575f80fd5b506104608061001c5f395ff3fe608060405234801561000f575f80fd5b5060043610610034575f3560e01c8063290bb45314610038578063cb7de65314610054575b5f80fd5b610052600480360381019061004d91906102c5565b610084565b005b61006e60048036038101906100699190610366565b6100f3565b60405161007b91906103a9565b60405180910390f35b5f816040516020016100969190610414565b604051602081830303815290604052805190602001209050805f803373ffffffffffffffffffffffffffffffffffffffff1673ffffffffffffffffffffffffffffffffffffffff1681526020019081526020015f20819055505050565b5f805f808473ffffffffffffffffffffffffffffffffffffffff1673ffffffffffffffffffffffffffffffffffffffff1681526020019081526020015f205490505f801b810361016f576040517fc5723b5100000000000000000000000000000000000000000000000000000000815260040160405180910390fd5b80915050919050565b5f604051905090565b5f80fd5b5f80fd5b5f80fd5b5f80fd5b5f601f19601f8301169050919050565b7f4e487b71000000000000000000000000000000000000000000000000000000005f52604160045260245ffd5b6101d782610191565b810181811067ffffffffffffffff821117156101f6576101f56101a1565b5b80604052505050565b5f610208610178565b905061021482826101ce565b919050565b5f67ffffffffffffffff821115610233576102326101a1565b5b61023c82610191565b9050602081019050919050565b828183375f83830152505050565b5f61026961026484610219565b6101ff565b9050828152602081018484840111156102855761028461018d565b5b610290848285610249565b509392505050565b5f82601f8301126102ac576102ab610189565b5b81356102bc848260208601610257565b91505092915050565b5f602082840312156102da576102d9610181565b5b5f82013567ffffffffffffffff8111156102f7576102f6610185565b5b61030384828501610298565b91505092915050565b5f73ffffffffffffffffffffffffffffffffffffffff82169050919050565b5f6103358261030c565b9050919050565b6103458161032b565b811461034f575f80fd5b50565b5f813590506103608161033c565b92915050565b5f6020828403121561037b5761037a610181565b5b5f61038884828501610352565b91505092915050565b5f819050919050565b6103a381610391565b82525050565b5f6020820190506103bc5f83018461039a565b92915050565b5f81519050919050565b5f81905092915050565b8281835e5f83830152505050565b5f6103ee826103c2565b6103f881856103cc565b93506104088185602086016103d6565b80840191505092915050565b5f61041f82846103e4565b91508190509291505056fea26469706673582212201df080cbc8ac729a0270ac44c456a4c58f0796247058cc7b2c9012c821224ed264736f6c634300081a0033",
					"opcodes": "PUSH1 0x80 PUSH1 0x40 MSTORE CALLVALUE DUP1 ISZERO PUSH1 0xE JUMPI PUSH0 DUP1 REVERT JUMPDEST POP PUSH2 0x460 DUP1 PUSH2 0x1C PUSH0 CODECOPY PUSH0 RETURN INVALID PUSH1 0x80 PUSH1 0x40 MSTORE CALLVALUE DUP1 ISZERO PUSH2 0xF JUMPI PUSH0 DUP1 REVERT JUMPDEST POP PUSH1 0x4 CALLDATASIZE LT PUSH2 0x34 JUMPI PUSH0 CALLDATALOAD PUSH1 0xE0 SHR DUP1 PUSH4 0x290BB453 EQ PUSH2 0x38 JUMPI DUP1 PUSH4 0xCB7DE653 EQ PUSH2 0x54 JUMPI JUMPDEST PUSH0 DUP1 REVERT JUMPDEST PUSH2 0x52 PUSH1 0x4 DUP1 CALLDATASIZE SUB DUP2 ADD SWAP1 PUSH2 0x4D SWAP2 SWAP1 PUSH2 0x2C5 JUMP JUMPDEST PUSH2 0x84 JUMP JUMPDEST STOP JUMPDEST PUSH2 0x6E PUSH1 0x4 DUP1 CALLDATASIZE SUB DUP2 ADD SWAP1 PUSH2 0x69 SWAP2 SWAP1 PUSH2 0x366 JUMP JUMPDEST PUSH2 0xF3 JUMP JUMPDEST PUSH1 0x40 MLOAD PUSH2 0x7B SWAP2 SWAP1 PUSH2 0x3A9 JUMP JUMPDEST PUSH1 0x40 MLOAD DUP1 SWAP2 SUB SWAP1 RETURN JUMPDEST PUSH0 DUP2 PUSH1 0x40 MLOAD PUSH1 0x20 ADD PUSH2 0x96 SWAP2 SWAP1 PUSH2 0x414 JUMP JUMPDEST PUSH1 0x40 MLOAD PUSH1 0x20 DUP2 DUP4 SUB SUB DUP2 MSTORE SWAP1 PUSH1 0x40 MSTORE DUP1 MLOAD SWAP1 PUSH1 0x20 ADD KECCAK256 SWAP1 POP DUP1 PUSH0 DUP1 CALLER PUSH20 0xFFFFFFFFFFFFFFFFFFFFFFFFFFFFFFFFFFFFFFFF AND PUSH20 0xFFFFFFFFFFFFFFFFFFFFFFFFFFFFFFFFFFFFFFFF AND DUP2 MSTORE PUSH1 0x20 ADD SWAP1 DUP2 MSTORE PUSH1 0x20 ADD PUSH0 KECCAK256 DUP2 SWAP1 SSTORE POP POP POP JUMP JUMPDEST PUSH0 DUP1 PUSH0 DUP1 DUP5 PUSH20 0xFFFFFFFFFFFFFFFFFFFFFFFFFFFFFFFFFFFFFFFF AND PUSH20 0xFFFFFFFFFFFFFFFFFFFFFFFFFFFFFFFFFFFFFFFF AND DUP2 MSTORE PUSH1 0x20 ADD SWAP1 DUP2 MSTORE PUSH1 0x20 ADD PUSH0 KECCAK256 SLOAD SWAP1 POP PUSH0 DUP1 SHL DUP2 SUB PUSH2 0x16F JUMPI PUSH1 0x40 MLOAD PUSH32 0xC5723B5100000000000000000000000000000000000000000000000000000000 DUP2 MSTORE PUSH1 0x4 ADD PUSH1 0x40 MLOAD DUP1 SWAP2 SUB SWAP1 REVERT JUMPDEST DUP1 SWAP2 POP POP SWAP2 SWAP1 POP JUMP JUMPDEST PUSH0 PUSH1 0x40 MLOAD SWAP1 POP SWAP1 JUMP JUMPDEST PUSH0 DUP1 REVERT JUMPDEST PUSH0 DUP1 REVERT JUMPDEST PUSH0 DUP1 REVERT JUMPDEST PUSH0 DUP1 REVERT JUMPDEST PUSH0 PUSH1 0x1F NOT PUSH1 0x1F DUP4 ADD AND SWAP1 POP SWAP2 SWAP1 POP JUMP JUMPDEST PUSH32 0x4E487B7100000000000000000000000000000000000000000000000000000000 PUSH0 MSTORE PUSH1 0x41 PUSH1 0x4 MSTORE PUSH1 0x24 PUSH0 REVERT JUMPDEST PUSH2 0x1D7 DUP3 PUSH2 0x191 JUMP JUMPDEST DUP2 ADD DUP2 DUP2 LT PUSH8 0xFFFFFFFFFFFFFFFF DUP3 GT OR ISZERO PUSH2 0x1F6 JUMPI PUSH2 0x1F5 PUSH2 0x1A1 JUMP JUMPDEST JUMPDEST DUP1 PUSH1 0x40 MSTORE POP POP POP JUMP JUMPDEST PUSH0 PUSH2 0x208 PUSH2 0x178 JUMP JUMPDEST SWAP1 POP PUSH2 0x214 DUP3 DUP3 PUSH2 0x1CE JUMP JUMPDEST SWAP2 SWAP1 POP JUMP JUMPDEST PUSH0 PUSH8 0xFFFFFFFFFFFFFFFF DUP3 GT ISZERO PUSH2 0x233 JUMPI PUSH2 0x232 PUSH2 0x1A1 JUMP JUMPDEST JUMPDEST PUSH2 0x23C DUP3 PUSH2 0x191 JUMP JUMPDEST SWAP1 POP PUSH1 0x20 DUP2 ADD SWAP1 POP SWAP2 SWAP1 POP JUMP JUMPDEST DUP3 DUP2 DUP4 CALLDATACOPY PUSH0 DUP4 DUP4 ADD MSTORE POP POP POP JUMP JUMPDEST PUSH0 PUSH2 0x269 PUSH2 0x264 DUP5 PUSH2 0x219 JUMP JUMPDEST PUSH2 0x1FF JUMP JUMPDEST SWAP1 POP DUP3 DUP2 MSTORE PUSH1 0x20 DUP2 ADD DUP5 DUP5 DUP5 ADD GT ISZERO PUSH2 0x285 JUMPI PUSH2 0x284 PUSH2 0x18D JUMP JUMPDEST JUMPDEST PUSH2 0x290 DUP5 DUP3 DUP6 PUSH2 0x249 JUMP JUMPDEST POP SWAP4 SWAP3 POP POP POP JUMP JUMPDEST PUSH0 DUP3 PUSH1 0x1F DUP4 ADD SLT PUSH2 0x2AC JUMPI PUSH2 0x2AB PUSH2 0x189 JUMP JUMPDEST JUMPDEST DUP2 CALLDATALOAD PUSH2 0x2BC DUP5 DUP3 PUSH1 0x20 DUP7 ADD PUSH2 0x257 JUMP JUMPDEST SWAP2 POP POP SWAP3 SWAP2 POP POP JUMP JUMPDEST PUSH0 PUSH1 0x20 DUP3 DUP5 SUB SLT ISZERO PUSH2 0x2DA JUMPI PUSH2 0x2D9 PUSH2 0x181 JUMP JUMPDEST JUMPDEST PUSH0 DUP3 ADD CALLDATALOAD PUSH8 0xFFFFFFFFFFFFFFFF DUP2 GT ISZERO PUSH2 0x2F7 JUMPI PUSH2 0x2F6 PUSH2 0x185 JUMP JUMPDEST JUMPDEST PUSH2 0x303 DUP5 DUP3 DUP6 ADD PUSH2 0x298 JUMP JUMPDEST SWAP2 POP POP SWAP3 SWAP2 POP POP JUMP JUMPDEST PUSH0 PUSH20 0xFFFFFFFFFFFFFFFFFFFFFFFFFFFFFFFFFFFFFFFF DUP3 AND SWAP1 POP SWAP2 SWAP1 POP JUMP JUMPDEST PUSH0 PUSH2 0x335 DUP3 PUSH2 0x30C JUMP JUMPDEST SWAP1 POP SWAP2 SWAP1 POP JUMP JUMPDEST PUSH2 0x345 DUP2 PUSH2 0x32B JUMP JUMPDEST DUP2 EQ PUSH2 0x34F JUMPI PUSH0 DUP1 REVERT JUMPDEST POP JUMP JUMPDEST PUSH0 DUP2 CALLDATALOAD SWAP1 POP PUSH2 0x360 DUP2 PUSH2 0x33C JUMP JUMPDEST SWAP3 SWAP2 POP POP JUMP JUMPDEST PUSH0 PUSH1 0x20 DUP3 DUP5 SUB SLT ISZERO PUSH2 0x37B JUMPI PUSH2 0x37A PUSH2 0x181 JUMP JUMPDEST JUMPDEST PUSH0 PUSH2 0x388 DUP5 DUP3 DUP6 ADD PUSH2 0x352 JUMP JUMPDEST SWAP2 POP POP SWAP3 SWAP2 POP POP JUMP JUMPDEST PUSH0 DUP2 SWAP1 POP SWAP2 SWAP1 POP JUMP JUMPDEST PUSH2 0x3A3 DUP2 PUSH2 0x391 JUMP JUMPDEST DUP3 MSTORE POP POP JUMP JUMPDEST PUSH0 PUSH1 0x20 DUP3 ADD SWAP1 POP PUSH2 0x3BC PUSH0 DUP4 ADD DUP5 PUSH2 0x39A JUMP JUMPDEST SWAP3 SWAP2 POP POP JUMP JUMPDEST PUSH0 DUP2 MLOAD SWAP1 POP SWAP2 SWAP1 POP JUMP JUMPDEST PUSH0 DUP2 SWAP1 POP SWAP3 SWAP2 POP POP JUMP JUMPDEST DUP3 DUP2 DUP4 MCOPY PUSH0 DUP4 DUP4 ADD MSTORE POP POP POP JUMP JUMPDEST PUSH0 PUSH2 0x3EE DUP3 PUSH2 0x3C2 JUMP JUMPDEST PUSH2 0x3F8 DUP2 DUP6 PUSH2 0x3CC JUMP JUMPDEST SWAP4 POP PUSH2 0x408 DUP2 DUP6 PUSH1 0x20 DUP7 ADD PUSH2 0x3D6 JUMP JUMPDEST DUP1 DUP5 ADD SWAP2 POP POP SWAP3 SWAP2 POP POP JUMP JUMPDEST PUSH0 PUSH2 0x41F DUP3 DUP5 PUSH2 0x3E4 JUMP JUMPDEST SWAP2 POP DUP2 SWAP1 POP SWAP3 SWAP2 POP POP JUMP INVALID LOG2 PUSH5 0x6970667358 0x22 SLT KECCAK256 SAR CREATE DUP1 0xCB 0xC8 0xAC PUSH19 0x9A0270AC44C456A4C58F0796247058CC7B2C90 SLT 0xC8 0x21 0x22 0x4E 0xD2 PUSH5 0x736F6C6343 STOP ADDMOD BYTE STOP CALLER "
				},
				"gasEstimates": {
					"creation": {
						"codeDepositCost": "224000",
						"executionCost": "261",
						"totalCost": "224261"
					},
					"external": {
						"getPasswordById(address)": "2870",
						"setPassword(string)": "infinite"
					}
				},
				"methodIdentifiers": {
					"getPasswordById(address)": "cb7de653",
					"setPassword(string)": "290bb453"
				}
			},
			"storageLayout": {
				"storage": [
					{
						"astId": 7,
						"contract": "contracts/SimplePasswordStorage.sol:SimplePasswordStorage",
						"label": "keyToPassword",
						"offset": 0,
						"slot": "0",
						"type": "t_mapping(t_address,t_bytes32)"
					}
				],
				"types": {
					"t_address": {
						"encoding": "inplace",
						"label": "address",
						"numberOfBytes": "20"
					},
					"t_bytes32": {
						"encoding": "inplace",
						"label": "bytes32",
						"numberOfBytes": "32"
					},
					"t_mapping(t_address,t_bytes32)": {
						"encoding": "mapping",
						"key": "t_address",
						"label": "mapping(address => bytes32)",
						"numberOfBytes": "32",
						"value": "t_bytes32"
					}
				}
			},
			"userdoc": {
				"kind": "user",
				"methods": {},
				"version": 1
			}
		}
	}
}