{
	"data": {
		"bytecode": {
			"linkReferences": {},
			"object": "6080604052348015600e575f80fd5b506104208061001c5f395ff3fe608060405234801561000f575f80fd5b5060043610610034575f3560e01c8063290bb45314610038578063cb7de65314610054575b5f80fd5b610052600480360381019061004d9190610285565b610084565b005b61006e60048036038101906100699190610326565b6100f3565b60405161007b9190610369565b60405180910390f35b5f8160405160200161009691906103d4565b604051602081830303815290604052805190602001209050805f803373ffffffffffffffffffffffffffffffffffffffff1673ffffffffffffffffffffffffffffffffffffffff1681526020019081526020015f20819055505050565b5f805f8373ffffffffffffffffffffffffffffffffffffffff1673ffffffffffffffffffffffffffffffffffffffff1681526020019081526020015f20549050919050565b5f604051905090565b5f80fd5b5f80fd5b5f80fd5b5f80fd5b5f601f19601f8301169050919050565b7f4e487b71000000000000000000000000000000000000000000000000000000005f52604160045260245ffd5b61019782610151565b810181811067ffffffffffffffff821117156101b6576101b5610161565b5b80604052505050565b5f6101c8610138565b90506101d4828261018e565b919050565b5f67ffffffffffffffff8211156101f3576101f2610161565b5b6101fc82610151565b9050602081019050919050565b828183375f83830152505050565b5f610229610224846101d9565b6101bf565b9050828152602081018484840111156102455761024461014d565b5b610250848285610209565b509392505050565b5f82601f83011261026c5761026b610149565b5b813561027c848260208601610217565b91505092915050565b5f6020828403121561029a57610299610141565b5b5f82013567ffffffffffffffff8111156102b7576102b6610145565b5b6102c384828501610258565b91505092915050565b5f73ffffffffffffffffffffffffffffffffffffffff82169050919050565b5f6102f5826102cc565b9050919050565b610305816102eb565b811461030f575f80fd5b50565b5f81359050610320816102fc565b92915050565b5f6020828403121561033b5761033a610141565b5b5f61034884828501610312565b91505092915050565b5f819050919050565b61036381610351565b82525050565b5f60208201905061037c5f83018461035a565b92915050565b5f81519050919050565b5f81905092915050565b8281835e5f83830152505050565b5f6103ae82610382565b6103b8818561038c565b93506103c8818560208601610396565b80840191505092915050565b5f6103df82846103a4565b91508190509291505056fea2646970667358221220f16968bd7e0f878391cba2ac2ec55d578736d05e2aecab2dc027bed4341cc74b64736f6c634300081a0033",
			"opcodes": "PUSH1 0x80 PUSH1 0x40 MSTORE CALLVALUE DUP1 ISZERO PUSH1 0xE JUMPI PUSH0 DUP1 REVERT JUMPDEST POP PUSH2 0x420 DUP1 PUSH2 0x1C PUSH0 CODECOPY PUSH0 RETURN INVALID PUSH1 0x80 PUSH1 0x40 MSTORE CALLVALUE DUP1 ISZERO PUSH2 0xF JUMPI PUSH0 DUP1 REVERT JUMPDEST POP PUSH1 0x4 CALLDATASIZE LT PUSH2 0x34 JUMPI PUSH0 CALLDATALOAD PUSH1 0xE0 SHR DUP1 PUSH4 0x290BB453 EQ PUSH2 0x38 JUMPI DUP1 PUSH4 0xCB7DE653 EQ PUSH2 0x54 JUMPI JUMPDEST PUSH0 DUP1 REVERT JUMPDEST PUSH2 0x52 PUSH1 0x4 DUP1 CALLDATASIZE SUB DUP2 ADD SWAP1 PUSH2 0x4D SWAP2 SWAP1 PUSH2 0x285 JUMP JUMPDEST PUSH2 0x84 JUMP JUMPDEST STOP JUMPDEST PUSH2 0x6E PUSH1 0x4 DUP1 CALLDATASIZE SUB DUP2 ADD SWAP1 PUSH2 0x69 SWAP2 SWAP1 PUSH2 0x326 JUMP JUMPDEST PUSH2 0xF3 JUMP JUMPDEST PUSH1 0x40 MLOAD PUSH2 0x7B SWAP2 SWAP1 PUSH2 0x369 JUMP JUMPDEST PUSH1 0x40 MLOAD DUP1 SWAP2 SUB SWAP1 RETURN JUMPDEST PUSH0 DUP2 PUSH1 0x40 MLOAD PUSH1 0x20 ADD PUSH2 0x96 SWAP2 SWAP1 PUSH2 0x3D4 JUMP JUMPDEST PUSH1 0x40 MLOAD PUSH1 0x20 DUP2 DUP4 SUB SUB DUP2 MSTORE SWAP1 PUSH1 0x40 MSTORE DUP1 MLOAD SWAP1 PUSH1 0x20 ADD KECCAK256 SWAP1 POP DUP1 PUSH0 DUP1 CALLER PUSH20 0xFFFFFFFFFFFFFFFFFFFFFFFFFFFFFFFFFFFFFFFF AND PUSH20 0xFFFFFFFFFFFFFFFFFFFFFFFFFFFFFFFFFFFFFFFF AND DUP2 MSTORE PUSH1 0x20 ADD SWAP1 DUP2 MSTORE PUSH1 0x20 ADD PUSH0 KECCAK256 DUP2 SWAP1 SSTORE POP POP POP JUMP JUMPDEST PUSH0 DUP1 PUSH0 DUP4 PUSH20 0xFFFFFFFFFFFFFFFFFFFFFFFFFFFFFFFFFFFFFFFF AND PUSH20 0xFFFFFFFFFFFFFFFFFFFFFFFFFFFFFFFFFFFFFFFF AND DUP2 MSTORE PUSH1 0x20 ADD SWAP1 DUP2 MSTORE PUSH1 0x20 ADD PUSH0 KECCAK256 SLOAD SWAP1 POP SWAP2 SWAP1 POP JUMP JUMPDEST PUSH0 PUSH1 0x40 MLOAD SWAP1 POP SWAP1 JUMP JUMPDEST PUSH0 DUP1 REVERT JUMPDEST PUSH0 DUP1 REVERT JUMPDEST PUSH0 DUP1 REVERT JUMPDEST PUSH0 DUP1 REVERT JUMPDEST PUSH0 PUSH1 0x1F NOT PUSH1 0x1F DUP4 ADD AND SWAP1 POP SWAP2 SWAP1 POP JUMP JUMPDEST PUSH32 0x4E487B7100000000000000000000000000000000000000000000000000000000 PUSH0 MSTORE PUSH1 0x41 PUSH1 0x4 MSTORE PUSH1 0x24 PUSH0 REVERT JUMPDEST PUSH2 0x197 DUP3 PUSH2 0x151 JUMP JUMPDEST DUP2 ADD DUP2 DUP2 LT PUSH8 0xFFFFFFFFFFFFFFFF DUP3 GT OR ISZERO PUSH2 0x1B6 JUMPI PUSH2 0x1B5 PUSH2 0x161 JUMP JUMPDEST JUMPDEST DUP1 PUSH1 0x40 MSTORE POP POP POP JUMP JUMPDEST PUSH0 PUSH2 0x1C8 PUSH2 0x138 JUMP JUMPDEST SWAP1 POP PUSH2 0x1D4 DUP3 DUP3 PUSH2 0x18E JUMP JUMPDEST SWAP2 SWAP1 POP JUMP JUMPDEST PUSH0 PUSH8 0xFFFFFFFFFFFFFFFF DUP3 GT ISZERO PUSH2 0x1F3 JUMPI PUSH2 0x1F2 PUSH2 0x161 JUMP JUMPDEST JUMPDEST PUSH2 0x1FC DUP3 PUSH2 0x151 JUMP JUMPDEST SWAP1 POP PUSH1 0x20 DUP2 ADD SWAP1 POP SWAP2 SWAP1 POP JUMP JUMPDEST DUP3 DUP2 DUP4 CALLDATACOPY PUSH0 DUP4 DUP4 ADD MSTORE POP POP POP JUMP JUMPDEST PUSH0 PUSH2 0x229 PUSH2 0x224 DUP5 PUSH2 0x1D9 JUMP JUMPDEST PUSH2 0x1BF JUMP JUMPDEST SWAP1 POP DUP3 DUP2 MSTORE PUSH1 0x20 DUP2 ADD DUP5 DUP5 DUP5 ADD GT ISZERO PUSH2 0x245 JUMPI PUSH2 0x244 PUSH2 0x14D JUMP JUMPDEST JUMPDEST PUSH2 0x250 DUP5 DUP3 DUP6 PUSH2 0x209 JUMP JUMPDEST POP SWAP4 SWAP3 POP POP POP JUMP JUMPDEST PUSH0 DUP3 PUSH1 0x1F DUP4 ADD SLT PUSH2 0x26C JUMPI PUSH2 0x26B PUSH2 0x149 JUMP JUMPDEST JUMPDEST DUP2 CALLDATALOAD PUSH2 0x27C DUP5 DUP3 PUSH1 0x20 DUP7 ADD PUSH2 0x217 JUMP JUMPDEST SWAP2 POP POP SWAP3 SWAP2 POP POP JUMP JUMPDEST PUSH0 PUSH1 0x20 DUP3 DUP5 SUB SLT ISZERO PUSH2 0x29A JUMPI PUSH2 0x299 PUSH2 0x141 JUMP JUMPDEST JUMPDEST PUSH0 DUP3 ADD CALLDATALOAD PUSH8 0xFFFFFFFFFFFFFFFF DUP2 GT ISZERO PUSH2 0x2B7 JUMPI PUSH2 0x2B6 PUSH2 0x145 JUMP JUMPDEST JUMPDEST PUSH2 0x2C3 DUP5 DUP3 DUP6 ADD PUSH2 0x258 JUMP JUMPDEST SWAP2 POP POP SWAP3 SWAP2 POP POP JUMP JUMPDEST PUSH0 PUSH20 0xFFFFFFFFFFFFFFFFFFFFFFFFFFFFFFFFFFFFFFFF DUP3 AND SWAP1 POP SWAP2 SWAP1 POP JUMP JUMPDEST PUSH0 PUSH2 0x2F5 DUP3 PUSH2 0x2CC JUMP JUMPDEST SWAP1 POP SWAP2 SWAP1 POP JUMP JUMPDEST PUSH2 0x305 DUP2 PUSH2 0x2EB JUMP JUMPDEST DUP2 EQ PUSH2 0x30F JUMPI PUSH0 DUP1 REVERT JUMPDEST POP JUMP JUMPDEST PUSH0 DUP2 CALLDATALOAD SWAP1 POP PUSH2 0x320 DUP2 PUSH2 0x2FC JUMP JUMPDEST SWAP3 SWAP2 POP POP JUMP JUMPDEST PUSH0 PUSH1 0x20 DUP3 DUP5 SUB SLT ISZERO PUSH2 0x33B JUMPI PUSH2 0x33A PUSH2 0x141 JUMP JUMPDEST JUMPDEST PUSH0 PUSH2 0x348 DUP5 DUP3 DUP6 ADD PUSH2 0x312 JUMP JUMPDEST SWAP2 POP POP SWAP3 SWAP2 POP POP JUMP JUMPDEST PUSH0 DUP2 SWAP1 POP SWAP2 SWAP1 POP JUMP JUMPDEST PUSH2 0x363 DUP2 PUSH2 0x351 JUMP JUMPDEST DUP3 MSTORE POP POP JUMP JUMPDEST PUSH0 PUSH1 0x20 DUP3 ADD SWAP1 POP PUSH2 0x37C PUSH0 DUP4 ADD DUP5 PUSH2 0x35A JUMP JUMPDEST SWAP3 SWAP2 POP POP JUMP JUMPDEST PUSH0 DUP2 MLOAD SWAP1 POP SWAP2 SWAP1 POP JUMP JUMPDEST PUSH0 DUP2 SWAP1 POP SWAP3 SWAP2 POP POP JUMP JUMPDEST DUP3 DUP2 DUP4 MCOPY PUSH0 DUP4 DUP4 ADD MSTORE POP POP POP JUMP JUMPDEST PUSH0 PUSH2 0x3AE DUP3 PUSH2 0x382 JUMP JUMPDEST PUSH2 0x3B8 DUP2 DUP6 PUSH2 0x38C JUMP JUMPDEST SWAP4 POP PUSH2 0x3C8 DUP2 DUP6 PUSH1 0x20 DUP7 ADD PUSH2 0x396 JUMP JUMPDEST DUP1 DUP5 ADD SWAP2 POP POP SWAP3 SWAP2 POP POP JUMP JUMPDEST PUSH0 PUSH2 0x3DF DUP3 DUP5 PUSH2 0x3A4 JUMP JUMPDEST SWAP2 POP DUP2 SWAP1 POP SWAP3 SWAP2 POP POP JUMP INVALID LOG2 PUSH5 0x6970667358 0x22 SLT KECCAK256 CALL PUSH10 0x68BD7E0F878391CBA2AC 0x2E 0xC5 TSTORE JUMPI DUP8 CALLDATASIZE 0xD0 MCOPY 0x2A 0xEC 0xAB 0x2D 0xC0 0x27 0xBE 0xD4 CALLVALUE SHR 0xC7 0x4B PUSH5 0x736F6C6343 STOP ADDMOD BYTE STOP CALLER "
		},
		"gasEstimates": {
			"creation": {
				"codeDepositCost": "211200",
				"executionCost": "249",
				"totalCost": "211449"
			},
			"external": {
				"getPasswordById(address)": "2829",
				"setPassword(string)": "infinite"
			}
		},
		"methodIdentifiers": {
			"getPasswordById(address)": "cb7de653",
			"setPassword(string)": "290bb453"
		}
	},
	"abi": [
		{
			"inputs": [
				{
					"internalType": "address",
					"name": "_user",
					"type": "address"
				}
			],
			"name": "getPasswordById",
			"outputs": [
				{
					"internalType": "bytes32",
					"name": "",
					"type": "bytes32"
				}
			],
			"stateMutability": "view",
			"type": "function"
		},
		{
			"inputs": [
				{
					"internalType": "string",
					"name": "_password",
					"type": "string"
				}
			],
			"name": "setPassword",
			"outputs": [],
			"stateMutability": "nonpayable",
			"type": "function"
		}
	]
}